{
  "contractName": "Hub",
  "abi": [
    {
      "inputs": [],
      "payable": false,
      "stateMutability": "nonpayable",
      "type": "constructor"
    },
    {
      "constant": true,
      "inputs": [],
      "name": "isOwner",
      "outputs": [
        {
          "internalType": "bool",
          "name": "",
          "type": "bool"
        }
      ],
      "payable": false,
      "stateMutability": "view",
      "type": "function"
    },
    {
      "constant": false,
      "inputs": [
        {
          "internalType": "string",
          "name": "_description",
          "type": "string"
        },
        {
          "internalType": "string",
          "name": "_encodedQuiz",
          "type": "string"
        },
        {
          "internalType": "uint8[]",
          "name": "_answers",
          "type": "uint8[]"
        }
      ],
      "name": "newQuiz",
      "outputs": [],
      "payable": true,
      "stateMutability": "payable",
      "type": "function"
    },
    {
      "constant": true,
      "inputs": [],
      "name": "myQuizzes",
      "outputs": [
        {
          "internalType": "contract Quiz[]",
          "name": "quizAddresses",
          "type": "address[]"
        }
      ],
      "payable": false,
      "stateMutability": "view",
      "type": "function"
    },
    {
      "constant": false,
      "inputs": [],
      "name": "withdraw",
      "outputs": [],
      "payable": false,
      "stateMutability": "nonpayable",
      "type": "function"
    }
  ],
  "bytecode": "0x608060405234801561001057600080fd5b50336000806101000a81548173ffffffffffffffffffffffffffffffffffffffff021916908373ffffffffffffffffffffffffffffffffffffffff1602179055506121d6806100606000396000f3fe60806040526004361061003f5760003560e01c80633ccfd60b14610044578063822e05561461005b5780638f32d59b14610241578063bd64008f14610270575b600080fd5b34801561005057600080fd5b506100596102dc565b005b61023f6004803603606081101561007157600080fd5b810190808035906020019064010000000081111561008e57600080fd5b8201836020820111156100a057600080fd5b803590602001918460018302840111640100000000831117156100c257600080fd5b91908080601f016020809104026020016040519081016040528093929190818152602001838380828437600081840152601f19601f8201169050808301925050505050505091929192908035906020019064010000000081111561012557600080fd5b82018360208201111561013757600080fd5b8035906020019184600183028401116401000000008311171561015957600080fd5b91908080601f016020809104026020016040519081016040528093929190818152602001838380828437600081840152601f19601f820116905080830192505050505050509192919290803590602001906401000000008111156101bc57600080fd5b8201836020820111156101ce57600080fd5b803590602001918460208302840111640100000000831117156101f057600080fd5b919080806020026020016040519081016040528093929190818152602001838360200280828437600081840152601f19601f8201169050808301925050505050505091929192905050506103eb565b005b34801561024d57600080fd5b50610256610674565b604051808215151515815260200191505060405180910390f35b34801561027c57600080fd5b506102856106cb565b6040518080602001828103825283818151815260200191508051906020019060200280838360005b838110156102c85780820151818401526020810190506102ad565b505050509050019250505060405180910390f35b6000809054906101000a900473ffffffffffffffffffffffffffffffffffffffff1673ffffffffffffffffffffffffffffffffffffffff163373ffffffffffffffffffffffffffffffffffffffff1614610381576040517f08c379a00000000000000000000000000000000000000000000000000000000081526004018080602001828103825260218152602001806121816021913960400191505060405180910390fd5b6000809054906101000a900473ffffffffffffffffffffffffffffffffffffffff1673ffffffffffffffffffffffffffffffffffffffff166108fc479081150290604051600060405180830381858888f193505050501580156103e8573d6000803e3d6000fd5b50565b66b1a2bc2ec50000341461044a576040517f08c379a000000000000000000000000000000000000000000000000000000000815260040180806020018281038252602e815260200180612153602e913960400191505060405180910390fd5b600160003373ffffffffffffffffffffffffffffffffffffffff1673ffffffffffffffffffffffffffffffffffffffff1681526020019081526020016000208383833360405161049990610796565b808060200180602001806020018573ffffffffffffffffffffffffffffffffffffffff1673ffffffffffffffffffffffffffffffffffffffff168152602001848103845288818151815260200191508051906020019080838360005b838110156105105780820151818401526020810190506104f5565b50505050905090810190601f16801561053d5780820380516001836020036101000a031916815260200191505b50848103835287818151815260200191508051906020019080838360005b8381101561057657808201518184015260208101905061055b565b50505050905090810190601f1680156105a35780820380516001836020036101000a031916815260200191505b50848103825286818151815260200191508051906020019060200280838360005b838110156105df5780820151818401526020810190506105c4565b50505050905001975050505050505050604051809103906000f08015801561060b573d6000803e3d6000fd5b5090806001815401808255809150509060018203906000526020600020016000909192909190916101000a81548173ffffffffffffffffffffffffffffffffffffffff021916908373ffffffffffffffffffffffffffffffffffffffff16021790555050505050565b60008060009054906101000a900473ffffffffffffffffffffffffffffffffffffffff1673ffffffffffffffffffffffffffffffffffffffff163373ffffffffffffffffffffffffffffffffffffffff1614905090565b6060600160003373ffffffffffffffffffffffffffffffffffffffff1673ffffffffffffffffffffffffffffffffffffffff16815260200190815260200160002080548060200260200160405190810160405280929190818152602001828054801561078c57602002820191906000526020600020905b8160009054906101000a900473ffffffffffffffffffffffffffffffffffffffff1673ffffffffffffffffffffffffffffffffffffffff1681526020019060010190808311610742575b5050505050905090565b6119af806107a48339019056fe60806040523480156200001157600080fd5b50604051620019af380380620019af833981810160405260808110156200003757600080fd5b81019080805160405193929190846401000000008211156200005857600080fd5b838201915060208201858111156200006f57600080fd5b82518660018202830111640100000000821117156200008d57600080fd5b8083526020830192505050908051906020019080838360005b83811015620000c3578082015181840152602081019050620000a6565b50505050905090810190601f168015620000f15780820380516001836020036101000a031916815260200191505b50604052602001805160405193929190846401000000008211156200011557600080fd5b838201915060208201858111156200012c57600080fd5b82518660018202830111640100000000821117156200014a57600080fd5b8083526020830192505050908051906020019080838360005b838110156200018057808201518184015260208101905062000163565b50505050905090810190601f168015620001ae5780820380516001836020036101000a031916815260200191505b5060405260200180516040519392919084640100000000821115620001d257600080fd5b83820191506020820185811115620001e957600080fd5b82518660208202830111640100000000821117156200020757600080fd5b8083526020830192505050908051906020019060200280838360005b838110156200024057808201518184015260208101905062000223565b5050505090500160405260200180519060200190929190505050806000806101000a81548173ffffffffffffffffffffffffffffffffffffffff021916908373ffffffffffffffffffffffffffffffffffffffff1602179055508360019080519060200190620002b2929190620002ef565b508260029080519060200190620002cb929190620002ef565b508160039080519060200190620002e492919062000376565b50505050506200047f565b828054600181600116156101000203166002900490600052602060002090601f016020900481019282601f106200033257805160ff191683800117855562000363565b8280016001018555821562000363579182015b828111156200036257825182559160200191906001019062000345565b5b50905062000372919062000424565b5090565b82805482825590600052602060002090601f01602090048101928215620004115791602002820160005b83821115620003e057835183826101000a81548160ff021916908360ff1602179055509260200192600101602081600001049283019260010302620003a0565b80156200040f5782816101000a81549060ff0219169055600101602081600001049283019260010302620003e0565b505b5090506200042091906200044c565b5090565b6200044991905b80821115620004455760008160009055506001016200042b565b5090565b90565b6200047c91905b808211156200047857600081816101000a81549060ff02191690555060010162000453565b5090565b90565b611520806200048f6000396000f3fe608060405234801561001057600080fd5b506004361061007d5760003560e01c8063afd820671161005b578063afd82067146103b0578063c793fcf9146103e1578063d04a1ff814610440578063fca1de00146106265761007d565b80631ea1380c146100825780634b82caec146101365780635a9b0b89146102c1575b600080fd5b61008a61066a565b6040518080602001806020018460ff1660ff168152602001838103835286818151815260200191508051906020019060200280838360005b838110156100dd5780820151818401526020810190506100c2565b50505050905001838103825285818151815260200191508051906020019060200280838360005b8381101561011f578082015181840152602081019050610104565b505050509050019550505050505060405180910390f35b6101786004803603602081101561014c57600080fd5b81019080803573ffffffffffffffffffffffffffffffffffffffff16906020019092919050505061090c565b6040518080602001806020018660ff1660ff168152602001806020018560ff1660ff168152602001848103845289818151815260200191508051906020019080838360005b838110156101d85780820151818401526020810190506101bd565b50505050905090810190601f1680156102055780820380516001836020036101000a031916815260200191505b50848103835288818151815260200191508051906020019080838360005b8381101561023e578082015181840152602081019050610223565b50505050905090810190601f16801561026b5780820380516001836020036101000a031916815260200191505b50848103825286818151815260200191508051906020019060200280838360005b838110156102a757808201518184015260208101905061028c565b505050509050019850505050505050505060405180910390f35b6102c9610ce4565b604051808060200180602001838103835285818151815260200191508051906020019080838360005b8381101561030d5780820151818401526020810190506102f2565b50505050905090810190601f16801561033a5780820380516001836020036101000a031916815260200191505b50838103825284818151815260200191508051906020019080838360005b83811015610373578082015181840152602081019050610358565b50505050905090810190601f1680156103a05780820380516001836020036101000a031916815260200191505b5094505050505060405180910390f35b6103b8610e25565b604051808360ff1660ff1681526020018260ff1660ff1681526020019250505060405180910390f35b6103e9610e86565b6040518080602001828103825283818151815260200191508051906020019060200280838360005b8381101561042c578082015181840152602081019050610411565b505050509050019250505060405180910390f35b6106246004803603606081101561045657600080fd5b810190808035906020019064010000000081111561047357600080fd5b82018360208201111561048557600080fd5b803590602001918460018302840111640100000000831117156104a757600080fd5b91908080601f016020809104026020016040519081016040528093929190818152602001838380828437600081840152601f19601f8201169050808301925050505050505091929192908035906020019064010000000081111561050a57600080fd5b82018360208201111561051c57600080fd5b8035906020019184600183028401116401000000008311171561053e57600080fd5b91908080601f016020809104026020016040519081016040528093929190818152602001838380828437600081840152601f19601f820116905080830192505050505050509192919290803590602001906401000000008111156105a157600080fd5b8201836020820111156105b357600080fd5b803590602001918460208302840111640100000000831117156105d557600080fd5b919080806020026020016040519081016040528093929190818152602001838360200280828437600081840152601f19601f820116905080830192505050505050509192919290505050610fa9565b005b6106686004803603602081101561063c57600080fd5b81019080803573ffffffffffffffffffffffffffffffffffffffff169060200190929190505050611214565b005b6060806000600560003373ffffffffffffffffffffffffffffffffffffffff1673ffffffffffffffffffffffffffffffffffffffff16815260200190815260200160002060009054906101000a900460ff168061071357506000809054906101000a900473ffffffffffffffffffffffffffffffffffffffff1673ffffffffffffffffffffffffffffffffffffffff163373ffffffffffffffffffffffffffffffffffffffff16145b610768576040517f08c379a00000000000000000000000000000000000000000000000000000000081526004018080602001828103825260228152602001806114916022913960400191505060405180910390fd5b606060068054905060405190808252806020026020018201604052801561079e5781602001602082028038833980820191505090505b50905060008090505b6006805490508160ff161015610871576004600060068360ff16815481106107cb57fe5b9060005260206000200160009054906101000a900473ffffffffffffffffffffffffffffffffffffffff1673ffffffffffffffffffffffffffffffffffffffff1673ffffffffffffffffffffffffffffffffffffffff16815260200190815260200160002060030160009054906101000a900460ff16828260ff168151811061085057fe5b602002602001019060ff16908160ff168152505080806001019150506107a7565b5060068054806020026020016040519081016040528092919081815260200182805480156108f457602002820191906000526020600020905b8160009054906101000a900473ffffffffffffffffffffffffffffffffffffffff1673ffffffffffffffffffffffffffffffffffffffff16815260200190600101908083116108aa575b50505050509350809250600380549050915050909192565b606080600060606000600560003373ffffffffffffffffffffffffffffffffffffffff1673ffffffffffffffffffffffffffffffffffffffff16815260200190815260200160002060009054906101000a900460ff16806109b957506000809054906101000a900473ffffffffffffffffffffffffffffffffffffffff1673ffffffffffffffffffffffffffffffffffffffff163373ffffffffffffffffffffffffffffffffffffffff16145b610a0e576040517f08c379a00000000000000000000000000000000000000000000000000000000081526004018080602001828103825260228152602001806114916022913960400191505060405180910390fd5b600460008773ffffffffffffffffffffffffffffffffffffffff1673ffffffffffffffffffffffffffffffffffffffff1681526020019081526020016000206001018054600181600116156101000203166002900480601f016020809104026020016040519081016040528092919081815260200182805460018160011615610100020316600290048015610ae45780601f10610ab957610100808354040283529160200191610ae4565b820191906000526020600020905b815481529060010190602001808311610ac757829003601f168201915b50505050509450600460008773ffffffffffffffffffffffffffffffffffffffff1673ffffffffffffffffffffffffffffffffffffffff1681526020019081526020016000206002018054600181600116156101000203166002900480601f016020809104026020016040519081016040528092919081815260200182805460018160011615610100020316600290048015610bc15780601f10610b9657610100808354040283529160200191610bc1565b820191906000526020600020905b815481529060010190602001808311610ba457829003601f168201915b50505050509350600460008773ffffffffffffffffffffffffffffffffffffffff1673ffffffffffffffffffffffffffffffffffffffff16815260200190815260200160002060030160009054906101000a900460ff169250600460008773ffffffffffffffffffffffffffffffffffffffff1673ffffffffffffffffffffffffffffffffffffffff168152602001908152602001600020600001805480602002602001604051908101604052809291908181526020018280548015610ccc57602002820191906000526020600020906000905b82829054906101000a900460ff1660ff1681526020019060010190602082600001049283019260010382029150808411610c955790505b50505050509150600380549050905091939590929450565b60608060018054600181600116156101000203166002900480601f016020809104026020016040519081016040528092919081815260200182805460018160011615610100020316600290048015610d7d5780601f10610d5257610100808354040283529160200191610d7d565b820191906000526020600020905b815481529060010190602001808311610d6057829003601f168201915b5050505050915060028054600181600116156101000203166002900480601f016020809104026020016040519081016040528092919081815260200182805460018160011615610100020316600290048015610e1a5780601f10610def57610100808354040283529160200191610e1a565b820191906000526020600020905b815481529060010190602001808311610dfd57829003601f168201915b505050505090509091565b6000806003805490509050600460003373ffffffffffffffffffffffffffffffffffffffff1673ffffffffffffffffffffffffffffffffffffffff16815260200190815260200160002060030160009054906101000a900460ff1691509091565b60606000809054906101000a900473ffffffffffffffffffffffffffffffffffffffff1673ffffffffffffffffffffffffffffffffffffffff163373ffffffffffffffffffffffffffffffffffffffff1614610f2d576040517f08c379a00000000000000000000000000000000000000000000000000000000081526004018080602001828103825260228152602001806114916022913960400191505060405180910390fd5b6003805480602002602001604051908101604052809291908181526020018280548015610f9f57602002820191906000526020600020906000905b82829054906101000a900460ff1660ff1681526020019060010190602082600001049283019260010382029150808411610f685790505b5050505050905090565b6000600460003373ffffffffffffffffffffffffffffffffffffffff1673ffffffffffffffffffffffffffffffffffffffff1681526020019081526020016000206000018054905014611047576040517f08c379a00000000000000000000000000000000000000000000000000000000081526004018080602001828103825260398152602001806114b36039913960400191505060405180910390fd5b600080905060008090505b6003805490508160ff1610156110c95760038160ff168154811061107257fe5b90600052602060002090602091828204019190069054906101000a900460ff1660ff16838260ff16815181106110a457fe5b602002602001015160ff1614156110bc576001820191505b8080600101915050611052565b5060405180608001604052808381526020018581526020018481526020018260ff16815250600460003373ffffffffffffffffffffffffffffffffffffffff1673ffffffffffffffffffffffffffffffffffffffff1681526020019081526020016000206000820151816000019080519060200190611149929190611314565b5060208201518160010190805190602001906111669291906113bb565b5060408201518160020190805190602001906111839291906113bb565b5060608201518160030160006101000a81548160ff021916908360ff16021790555090505060063390806001815401808255809150509060018203906000526020600020016000909192909190916101000a81548173ffffffffffffffffffffffffffffffffffffffff021916908373ffffffffffffffffffffffffffffffffffffffff1602179055505050505050565b6000809054906101000a900473ffffffffffffffffffffffffffffffffffffffff1673ffffffffffffffffffffffffffffffffffffffff163373ffffffffffffffffffffffffffffffffffffffff16146112b9576040517f08c379a00000000000000000000000000000000000000000000000000000000081526004018080602001828103825260228152602001806114916022913960400191505060405180910390fd5b6001600560008373ffffffffffffffffffffffffffffffffffffffff1673ffffffffffffffffffffffffffffffffffffffff16815260200190815260200160002060006101000a81548160ff02191690831515021790555050565b82805482825590600052602060002090601f016020900481019282156113aa5791602002820160005b8382111561137b57835183826101000a81548160ff021916908360ff160217905550926020019260010160208160000104928301926001030261133d565b80156113a85782816101000a81549060ff021916905560010160208160000104928301926001030261137b565b505b5090506113b7919061143b565b5090565b828054600181600116156101000203166002900490600052602060002090601f016020900481019282601f106113fc57805160ff191683800117855561142a565b8280016001018555821561142a579182015b8281111561142957825182559160200191906001019061140e565b5b509050611437919061146b565b5090565b61146891905b8082111561146457600081816101000a81549060ff021916905550600101611441565b5090565b90565b61148d91905b80821115611489576000816000905550600101611471565b5090565b9056fe596f7520617265206e6f7420746865206f776e6572206f662074686973207175697a596f7520616c726561647920616e7377657265642074686973207175697a2c20746865726520617265206e6f206368616e636573206c656674a265627a7a723158201d5c1e965dcd0a6bf4bc22544eb6a18b3765c33d90dae9f74294972bf9c9ac4a64736f6c63430005100032596f7520617265206e6f7420706179696e67207468652065786163742076616c7565206f6620302e303520657468596f7520617265206e6f7420746865206f776e6572206f66207468697320687562a265627a7a723158200e0522e385adc29e0a4480a8a02bb29056a1687b67b92c7c4a69c472ba2ec7a164736f6c63430005100032",
  "source": "// SPDX-License-Identifier: MIT\npragma solidity >=0.4.22 <0.8.0;\n\nimport './Quiz.sol';\n\ncontract Hub {\n    address payable owner;\n    mapping(address => Quiz[]) quizzes;\n\n    constructor() public {\n        owner = msg.sender;\n    }\n\n    modifier onlyOwner() {\n        require(msg.sender == owner, 'You are not the owner of this hub');\n        _;\n    }\n\n    function isOwner() public view returns (bool) {\n        return msg.sender == owner;\n    }\n\n    function newQuiz(\n        string memory _description,\n        string memory _encodedQuiz,\n        uint8[] memory _answers\n    ) public payable {\n        require(msg.value == 0.05 ether, 'You are not paying the exact value of 0.05 eth');\n        quizzes[msg.sender].push(\n            new Quiz(_description, _encodedQuiz, _answers, msg.sender)\n        );\n    }\n\n    function myQuizzes() public view returns (Quiz[] memory quizAddresses) {\n        quizAddresses = quizzes[msg.sender];\n    }\n\n    function withdraw() public onlyOwner {\n        owner.transfer(address(this).balance);\n    }\n}\n",
  "sourcePath": "/home/mesi/Projects/Teaching/Externado/quiz/contracts/Hub.sol",
  "compiler": {
    "name": "solc",
    "version": "0.5.16+commit.9c3226ce.Emscripten.clang"
  },
  "schemaVersion": "3.3.2",
  "updatedAt": "2020-11-26T15:33:47.040Z",
  "devdoc": {
    "methods": {}
  },
  "userdoc": {
    "methods": {}
  }
}