{
  "contractName": "Quiz",
  "abi": [
    {
      "inputs": [
        {
          "internalType": "string",
          "name": "_description",
          "type": "string"
        },
        {
          "internalType": "string",
          "name": "_encodedQuiz",
          "type": "string"
        },
        {
          "internalType": "uint8[]",
          "name": "_answers",
          "type": "uint8[]"
        },
        {
          "internalType": "address",
          "name": "_owner",
          "type": "address"
        }
      ],
      "payable": false,
      "stateMutability": "nonpayable",
      "type": "constructor"
    },
    {
      "constant": true,
      "inputs": [],
      "name": "getInfo",
      "outputs": [
        {
          "internalType": "string",
          "name": "description",
          "type": "string"
        },
        {
          "internalType": "string",
          "name": "questions",
          "type": "string"
        }
      ],
      "payable": false,
      "stateMutability": "view",
      "type": "function"
    },
    {
      "constant": true,
      "inputs": [],
      "name": "getAnswers",
      "outputs": [
        {
          "internalType": "uint8[]",
          "name": "",
          "type": "uint8[]"
        }
      ],
      "payable": false,
      "stateMutability": "view",
      "type": "function"
    },
    {
      "constant": false,
      "inputs": [
        {
          "internalType": "uint8[]",
          "name": "_answers",
          "type": "uint8[]"
        }
      ],
      "name": "answerQuiz",
      "outputs": [],
      "payable": false,
      "stateMutability": "nonpayable",
      "type": "function"
    },
    {
      "constant": true,
      "inputs": [],
      "name": "getScore",
      "outputs": [
        {
          "internalType": "uint256",
          "name": "score",
          "type": "uint256"
        }
      ],
      "payable": false,
      "stateMutability": "view",
      "type": "function"
    }
  ],
  "bytecode": "0x60806040523480156200001157600080fd5b5060405162000cae38038062000cae833981810160405260808110156200003757600080fd5b81019080805160405193929190846401000000008211156200005857600080fd5b838201915060208201858111156200006f57600080fd5b82518660018202830111640100000000821117156200008d57600080fd5b8083526020830192505050908051906020019080838360005b83811015620000c3578082015181840152602081019050620000a6565b50505050905090810190601f168015620000f15780820380516001836020036101000a031916815260200191505b50604052602001805160405193929190846401000000008211156200011557600080fd5b838201915060208201858111156200012c57600080fd5b82518660018202830111640100000000821117156200014a57600080fd5b8083526020830192505050908051906020019080838360005b838110156200018057808201518184015260208101905062000163565b50505050905090810190601f168015620001ae5780820380516001836020036101000a031916815260200191505b5060405260200180516040519392919084640100000000821115620001d257600080fd5b83820191506020820185811115620001e957600080fd5b82518660208202830111640100000000821117156200020757600080fd5b8083526020830192505050908051906020019060200280838360005b838110156200024057808201518184015260208101905062000223565b5050505090500160405260200180519060200190929190505050806000806101000a81548173ffffffffffffffffffffffffffffffffffffffff021916908373ffffffffffffffffffffffffffffffffffffffff1602179055508360019080519060200190620002b2929190620002ef565b508260029080519060200190620002cb929190620002ef565b508160039080519060200190620002e492919062000376565b50505050506200047f565b828054600181600116156101000203166002900490600052602060002090601f016020900481019282601f106200033257805160ff191683800117855562000363565b8280016001018555821562000363579182015b828111156200036257825182559160200191906001019062000345565b5b50905062000372919062000424565b5090565b82805482825590600052602060002090601f01602090048101928215620004115791602002820160005b83821115620003e057835183826101000a81548160ff021916908360ff1602179055509260200192600101602081600001049283019260010302620003a0565b80156200040f5782816101000a81549060ff0219169055600101602081600001049283019260010302620003e0565b505b5090506200042091906200044c565b5090565b6200044991905b80821115620004455760008160009055506001016200042b565b5090565b90565b6200047c91905b808211156200047857600081816101000a81549060ff02191690555060010162000453565b5090565b90565b61081f806200048f6000396000f3fe608060405234801561001057600080fd5b506004361061004c5760003560e01c80635a9b0b8914610051578063afd8206714610140578063c793fcf91461015e578063d39eaf48146101bd575b600080fd5b610059610275565b604051808060200180602001838103835285818151815260200191508051906020019080838360005b8381101561009d578082015181840152602081019050610082565b50505050905090810190601f1680156100ca5780820380516001836020036101000a031916815260200191505b50838103825284818151815260200191508051906020019080838360005b838110156101035780820151818401526020810190506100e8565b50505050905090810190601f1680156101305780820380516001836020036101000a031916815260200191505b5094505050505060405180910390f35b6101486103b6565b6040518082815260200191505060405180910390f35b6101666104a3565b6040518080602001828103825283818151815260200191508051906020019060200280838360005b838110156101a957808201518184015260208101905061018e565b505050509050019250505060405180910390f35b610273600480360360208110156101d357600080fd5b81019080803590602001906401000000008111156101f057600080fd5b82018360208201111561020257600080fd5b8035906020019184602083028401116401000000008311171561022457600080fd5b919080806020026020016040519081016040528093929190818152602001838360200280828437600081840152601f19601f8201169050808301925050505050505091929192905050506105c6565b005b60608060018054600181600116156101000203166002900480601f01602080910402602001604051908101604052809291908181526020018280546001816001161561010002031660029004801561030e5780601f106102e35761010080835404028352916020019161030e565b820191906000526020600020905b8154815290600101906020018083116102f157829003601f168201915b5050505050915060028054600181600116156101000203166002900480601f0160208091040260200160405190810160405280929190818152602001828054600181600116156101000203166002900480156103ab5780601f10610380576101008083540402835291602001916103ab565b820191906000526020600020905b81548152906001019060200180831161038e57829003601f168201915b505050505090509091565b600080905060005b6003805490508160ff16101561048b57600460003373ffffffffffffffffffffffffffffffffffffffff1673ffffffffffffffffffffffffffffffffffffffff1681526020019081526020016000208160ff168154811061041b57fe5b90600052602060002090602091828204019190069054906101000a900460ff1660ff1660038260ff168154811061044e57fe5b90600052602060002090602091828204019190069054906101000a900460ff1660ff16141561047e576001820191505b80806001019150506103be565b50606460038054905002818161049d57fe5b04905090565b60606000809054906101000a900473ffffffffffffffffffffffffffffffffffffffff1673ffffffffffffffffffffffffffffffffffffffff163373ffffffffffffffffffffffffffffffffffffffff161461054a576040517f08c379a00000000000000000000000000000000000000000000000000000000081526004018080602001828103825260228152602001806107906022913960400191505060405180910390fd5b60038054806020026020016040519081016040528092919081815260200182805480156105bc57602002820191906000526020600020906000905b82829054906101000a900460ff1660ff16815260200190600101906020826000010492830192600103820291508084116105855790505b5050505050905090565b6000600460003373ffffffffffffffffffffffffffffffffffffffff1673ffffffffffffffffffffffffffffffffffffffff1681526020019081526020016000208054905014610661576040517f08c379a00000000000000000000000000000000000000000000000000000000081526004018080602001828103825260398152602001806107b26039913960400191505060405180910390fd5b80600460003373ffffffffffffffffffffffffffffffffffffffff1673ffffffffffffffffffffffffffffffffffffffff16815260200190815260200160002090805190602001906106b49291906106b8565b5050565b82805482825590600052602060002090601f0160209004810192821561074e5791602002820160005b8382111561071f57835183826101000a81548160ff021916908360ff16021790555092602001926001016020816000010492830192600103026106e1565b801561074c5782816101000a81549060ff021916905560010160208160000104928301926001030261071f565b505b50905061075b919061075f565b5090565b61078c91905b8082111561078857600081816101000a81549060ff021916905550600101610765565b5090565b9056fe596f7520617265206e6f7420746865206f776e6572206f662074686973207175697a596f7520616c726561647920616e7377657265642074686973207175697a2c20746865726520617265206e6f206368616e636573206c656674a265627a7a7231582001c1fe2e21ac5afb26af6441082a38330645155fb38af1c09d49cddc07042ed864736f6c63430005100032",
  "source": "// SPDX-License-Identifier: MIT\npragma solidity >=0.4.22 <0.8.0;\n\ncontract Quiz {\n    address owner;\n    string desc;\n    string encodedQuiz;\n    uint8[] answers;\n    mapping(address => uint8[]) studentAnswers;\n\n    constructor(\n        string memory _description,\n        string memory _encodedQuiz,\n        uint8[] memory _answers,\n        address _owner\n    ) public {\n        owner = _owner;\n        desc = _description;\n        encodedQuiz = _encodedQuiz;\n        answers = _answers;\n    }\n\n    modifier onlyOwner() {\n        require(msg.sender == owner, 'You are not the owner of this quiz');\n        _;\n    }\n\n    function getInfo() public view returns (\n        string memory description,\n        string memory questions\n    ) {\n        description = desc;\n        questions = encodedQuiz;\n    }\n\n    function getAnswers() public view onlyOwner returns (uint8[] memory) {\n        return answers;\n    }\n\n    function answerQuiz(uint8[] memory _answers) public {\n        require(studentAnswers[msg.sender].length == 0, 'You already answered this quiz, there are no chances left');\n        studentAnswers[msg.sender] = _answers;\n    }\n\n    function getScore() public view returns (uint score) {\n        score = 0;\n        for (uint8 i; i < answers.length; i++) {\n            if (answers[i] == studentAnswers[msg.sender][i]) {\n                score += 1;\n            }\n        }\n        score /= answers.length * 100;\n    }\n}\n",
  "sourcePath": "/home/mesi/Projects/Teaching/Externado/quiz/contracts/Quiz.sol",
  "compiler": {
    "name": "solc",
    "version": "0.5.16+commit.9c3226ce.Emscripten.clang"
  },
  "schemaVersion": "3.3.2",
  "updatedAt": "2020-11-25T00:16:59.093Z",
  "devdoc": {
    "methods": {}
  },
  "userdoc": {
    "methods": {}
  }
}